:100000000C945F000C9487000C9487000C9487007C
:100010000C9487000C9487000C9487000C94870044
:100020000C9487000C9487000C9487000C94870034
:100030000C9487000C9487000C9487000C94870024
:100040000C94D8080C9487000C94A20B0C94D40B3D
:100050000C9487000C9487000C9487000C94870004
:100060000C9487000C948700000000080002010037
:100070000003040700000000000000000102040863
:100080001020408001020408102001020408102002
:10009000040404040404040402020202020203032E
:1000A0000303030300000000250028002B000000CC
:1000B0000000240027002A005606040C5E061124C6
:1000C0001FBECFEFD8E0DEBFCDBF11E0A0E0B1E0B2
:1000D000E6E1FCE102C005900D92A432B107D9F728
:1000E00022E0A4E2B1E001C01D92AE31B207E1F717
:1000F00010E0CCEBD0E004C02297FE010E94CC0CB3
:10010000C83BD107C9F70E94480C0C94FE0D0C9413
:1001100000000F931F93CF93DF9326E040E855E252
:1001200060E070E08DE791E00E94400B60E080911C
:1001300006010E94EE0960E080910E010E94EE0926
:1001400060E080910C010E94EE0960E080916901FD
:100150000E94EE090AE011E061E0F80180810E944E
:10016000EE09C8E0D1E061E088810E94EE0960E01C
:10017000F80180810E94270A61E088810E94270A95
:1001800084E291E00E94760684E291E0DF91CF91D3
:100190001F910F910C94F106CF92DF92EF92FF9294
:1001A0000F931F93CF93DF93CDB7DEB72E970FB684
:1001B000F894DEBF0FBECDBF00E010E06E0187E017
:1001C000C80ED11CFE0131967F0160E080910801CC
:1001D0000E94270A809106010E94A809F7018193D5
:1001E00091937F0161E0809108010E94270AEC143D
:1001F000FD0459F784E0E82EF12C60E080910801BD
:100200000E94270A61E0809108010E94270AF1E01C
:10021000EF1AF10891F7E980FA808B819C81E80E52
:10022000F91E8D819E81E80EF91E60E08091080123
:100230000E94270A61E0809108010E94270A88E055
:10024000E81687E0F8061CF40150110902C00F5FA0
:100250001F4F093011050CF4B5CF2E960FB6F89448
:10026000DEBF0FBECDBFDF91CF911F910F91FF90E9
:10027000EF90DF90CF900895CF93DF93CAE0D1E065
:1002800061E088810E94270A60E088810E94270A35
:10029000109271011092700110927301109272010C
:1002A0008AE090E090936F0180936E01DF91CF918F
:1002B00008952F923F924F925F926F927F928F920A
:1002C0009F92AF92BF92CF92DF92EF92FF920F93E5
:1002D0001F93CF93DF93CDB7DEB7A1970FB6F894F6
:1002E000DEBF0FBECDBF412C512C1E010FE0200EF2
:1002F000311C809165019091660190936801809313
:100300006701809110010E94A80990936601809373
:100310006501863491058CF58091670190916801A3
:100320008D32914054F164E170E080E090E00E94F1
:100330004509809110010E94A8099093660180935D
:10034000650186349105ACF6A1960FB6F894DEBF30
:100350000FBECDBFDF91CF911F910F91FF90EF9016
:10036000DF90CF90BF90AF909F908F907F906F90D5
:100370005F904F903F902F90089561E080910A0127
:100380000E94270A60E080910A010E94270A7E01EC
:100390002DE1E20EF11C810160E0809108010E94D4
:1003A000270A809106010E94A809F8018193919380
:1003B0008F0161E0809108010E94270A0E151F0538
:1003C00059F780E090E00097D1F4D10120E030E0CF
:1003D0004D915D91F201EE0FFF1F01E010E00C0F57
:1003E0001D1FE00FF11F66857785461757070CF430
:1003F00029012F5F3F4F2730310551F73EC0FC01E7
:100400003197EE0FFF1F21E030E02C0F3D1FE20F70
:10041000F31F0190F081E02DEE0FFF1FE20FF31F9D
:1004200046855785F10120E030E0619171914617D2
:1004300057070CF429012F5F3F4F27303105A9F7EB
:10044000D10120E030E06D917D91F201EE0FFF1FB0
:1004500001E010E00C0F1D1FE00FF11F0684F7856F
:10046000E02D6E177F0724F4461757070CF4290177
:100470002F5F3F4F2730310531F7F201EE0FFF1F9D
:1004800021E030E02C0F3D1FE20FF31F468557851A
:10049000D10120E030E06D917D916417750761F422
:1004A000FC01EE0FFF1F61E070E06C0F7D1FE60F97
:1004B000F71F3183208301962F5F3F4F273031058F
:1004C00051F7873091050CF47ECF36E0632E712C06
:1004D0006114710409F4BEC0F301EE0FFF1F81E047
:1004E00090E08C0F9D1FE80FF91FA081B181AA0F2A
:1004F000BB1FA80FB91F1E968D919C911F97D3010A
:100500001197AA0FBB1F01E010E00C0F1D1FA00FD9
:10051000B11F0D90BC91A02DAA0FBB1FA00FB11F42
:100520001E962D913C911F978217930709F418C1CD
:1005300047E0842E912C8618970864E270E00E94B0
:10054000940C78A36F8FC90164E270E00E94940C50
:100550007E8F6D8FB30180E090E0E12CF12CC12CF7
:10056000D12CA12CB12CDF01A80FB91F2D913C91EA
:1005700016E0129FD001139FB00D1124A55CBE4F51
:100580004D915C911416150614F4A40EB51E46E0A8
:10059000429FD001439FB00D1124A55CBE4F12961F
:1005A0004D915C9113971416150614F4C40ED51EC4
:1005B00006E0029FD001039FB00D1124A55CBE4F41
:1005C00014962D913C9115971216130614F4E20E11
:1005D000F31E6F5F7F4F02966730710521F60D8D18
:1005E0001E8D2F8D38A1201731075CF191E01C146E
:1005F0001D040CF090E081E01A141B040CF080E064
:10060000892B19F41E141F04CCF4C701B4010E94F5
:10061000940C462FC601B4010E94940C262FC501EC
:10062000B4010E94940C862F622F0E94C6089B0181
:10063000AC01B80184E291E00E9461080F5F1F4F96
:10064000D0CF0D8D1E8D012B09F08AC066246A94CF
:10065000762C86C0E981FA81EE0FFF1F21E030E0A1
:100660002C0F3D1FE20FF31F86859785181619067C
:100670000CF076C064E270E00E94940C4B01F9012A
:10068000A12CB12CC12CD12CE12CF12C8191919178
:1006900036E0389FD001399FB00D1124A55CBE4FC4
:1006A0002D913C911216130614F4E20EF31E46E04F
:1006B000489FD001499FB00D1124A55CBE4F1296F2
:1006C0002D913C9113971216130614F4C20ED31EEB
:1006D00066E0689FD001699FB00D1124A55CBE4FF4
:1006E00014968D919C9115971816190614F4A80E5E
:1006F000B91EE215F30551F6C50167E070E00E94EE
:10070000940C6D8FC60167E070E00E94940C6F8FAF
:10071000C70167E070E00E94940C69A300E010E05C
:1007200091E01C141D040CF090E081E01E141F04E5
:100730000CF080E0892B19F41A141B0464F44D8D1D
:100740006F8D89A10E94C6089B01AC01B80184E2AB
:1007500091E00E9461080F5F1F4F8016910604F719
:1007600071E0671A710877FEB3CEED85FE85EE0F56
:10077000FF1F81E090E08C0F9D1FE80FF91F068599
:1007800017850C3111057CF440E060E080E00E94A8
:10079000C6089B01AC01B80184E291E00E946108A7
:1007A0000F5F1F4FEECF84E291E00E94F106A1CDD2
:1007B000EF92FF920F931F93CF93DF93CBE3D1E0A0
:1007C00016E0809165019091660190936801809395
:1007D0006701809110010E94A8099093660180939F
:1007E000650186349105CCF4809167019091680190
:1007F0008D32914094F064E170E080E090E00E94DE
:100800004509809110010E94A80990936601809388
:10081000650186349105ACF649C080910E010E94B5
:10082000A80997FD03969595879595958795998342
:10083000888380910C010E94A80997FD03969595E5
:100840008795959587959B838A83809169010E94FE
:10085000A80997FD039695958795959587959D830E
:100860008C8384E291E00E94CF08E12CF12C8091EE
:10087000390190913A01189FF001199FF00D112450
:10088000E55CFE4F048122814081B70184E291E062
:100890000E940D088FEFE81AF80A2CE1E216F10425
:1008A00031F784E291E00E94F1068BCF269681E039
:1008B000C536D80709F085CFDF91CF911F910F91F1
:1008C000FF90EF900C9459016F927F928F929F92BC
:1008D000AF92BF92CF92DF92EF92FF920F931F934E
:1008E000CF93DF93CDB7DEB76C970FB6F894DEBF2A
:1008F0000FBECDBF0E943C01E12CF12CB8EECB2EF7
:10090000B3E0DB2E11E08091650190916601909338
:10091000680180936701809110010E94A80990935B
:10092000660180936501863491056CF580916701BD
:10093000909168018D32914034F164E170E080E083
:1009400090E00E944509809110010E94A8099093AF
:1009500066018093650186349105ACF66C960FB6FE
:10096000F894DEBF0FBECDBFDF91CF911F910F91E5
:10097000FF90EF90DF90CF90BF90AF909F908F90BF
:100980007F906F90089584E291E00E94CF0860917B
:100990006E0170916F01C7010E94940C892B21F4A4
:1009A0000E94CC00E12CF12C80917001909171019A
:1009B000B6010E94940C882777FD8095982F0E949D
:1009C00045098091720190917301B6010E94940CC7
:1009D000882777FD8095982F0E9445091E871F87DD
:1009E000CE0101964C01A12CB12CF401808195011E
:1009F0002F5F3F4F3901882309F44BC00FEF20E0F0
:100A000040E0B50184E291E00E940D083CE0A316AD
:100A1000B104DCF522E342E3B30184E291E00E94F9
:100A20000D088BE0A816B10481F124E644E6B50177
:100A30006E5F7F4F84E291E00E940D089AE0A91654
:100A4000B10419F126E946E9B5016D5F7F4F84E2F3
:100A500091E00E940D08E9E0AE16B104B1F028EC77
:100A600048ECB5016C5F7F4F84E291E00E940D0875
:100A7000F8E0AF16B10449F0B5016B5F7F4F2FEF7F
:100A80004FEF84E291E00E940D08F401108231974B
:100A900010835301FFEF8F1A9F0A2EE06216710434
:100AA00009F0A3CFCE014D963C014C01ABE1AA2E3B
:100AB000B12CF30182913F01882309F44FC00FEF5D
:100AC00020E040E0B501625F7F4F84E291E00E9448
:100AD0000D08F0E1AF16B104ECF122E342E3B501F9
:100AE000635F7F4F84E291E00E940D0820E1A2162F
:100AF000B10481F124E644E6B501645F7F4F84E2EE
:100B000091E00E940D0831E1A316B10419F126E924
:100B100046E9B501655F7F4F84E291E00E940D08D0
:100B200082E1A816B104B1F028EC48ECB501665F8B
:100B30007F4F84E291E00E940D0893E1A916B10471
:100B400049F02FEF4FEFB501675F7F4F84E291E0EF
:100B50000E940D08F3011082F4011083F1E0AF1A36
:100B6000B10821E0821A91083DE0A316B10409F012
:100B7000A0CF84E291E00E94F1068FEFE81AF80A14
:100B8000C2CE0F93809110010E94A8099093660134
:100B900080936501863491050CF07EC080916701D9
:100BA000909168018D3291400CF476C064E170E060
:100BB00080E090E00E944509809110010E94A80900
:100BC0009093660180936501863491050CF064C0B2
:100BD00081E080936B0180916B01882309F44FC001
:100BE00080916501909166019093680180936701FF
:100BF000809110010E94A80990936601809365017D
:100C000086349105DCF480916701909168018D3202
:100C10009140A4F064E170E080E090E00E9445091A
:100C2000809110010E94A80990936601809365014C
:100C30008634910584F610926B01CDCF84E291E069
:100C40000E94CF0880910E010E94A80997FF02C060
:100C500081509E4F792F770F770B692F65956093A1
:100C60006C0170936D010FEF2FEF4FEF84E291E075
:100C70000E940D0884E291E00E94F106ACCF8091C1
:100C80006C0190916D01009729F0019729F40E9461
:100C9000640402C00E94D8038091650190916601AE
:100CA00090936801809367010F91089526E046E0D4
:100CB0006CE170E084E291E00C94E50784E291E05D
:100CC0000C946206CF93DF93EC0188859985009799
:100CD00011F00E94680D8E8187FD05C060E0DF91F4
:100CE000CF910C94EE09DF91CF910895CF93DF93CC
:100CF000EC018E8187FD07C061E00E94EE0960E093
:100D00008E810E94270A81E08983DF91CF91089527
:100D1000EF92FF920F931F93CF93DF93EC017B0130
:100D200088859985009711F00E94680D9D858A85B8
:100D3000981303C083E090E002C084E090E08E9DB1
:100D400080018F9D100D9E9D100D11241D830C831D
:100D5000C8010E94D00C99878887009741F0A801AC
:100D600060E070E00E94F70DFB82EA8204C01D8201
:100D70001C821B821A82DF91CF911F910F91FF90ED
:100D8000EF900895FC0141E095858285981340E03D
:100D9000562F52955695569553705587862F90E04D
:100DA0009C0174E0359527957A95E1F723702287A9
:100DB00095958795959587958370838763706487EC
:100DC00081E0808380859185892B51F081E05213E9
:100DD00080E0841729F062817381CF010C9488062A
:100DE0000895CF92DF92EF92FF920F931F93CF93CC
:100DF000DF93CDB7DEB729970FB6F894DEBF0FBEED
:100E0000CDBF8C01DC0118968D919C911997892B8F
:100E100009F49AC00E942209F801C684D784E088A8
:100E2000F1886C197D098E099F096233710581056E
:100E3000910580F3F894848195819A838983A085B4
:100E4000B1857D01EFEFEE1AFE0A8C918987D801FA
:100E50009C9152960D90BC91A02DF8018489992304
:100E600009F42EC09C91982B98879C91809589239A
:100E70008F838F818E8388E08D8358856F8149852C
:100E80003D812E8189819A81F7015C9347FD252F51
:100E90003A952C93262F39F0441F00C000006C9324
:100EA000000000C0F2CF38E041916C930000019740
:100EB00061F7F801B38BA28B49873D832E8338C03D
:100EC0009C91982B98879C91809589238F838F8103
:100ED0008C8388E08B8358856F8149853B812C8189
:100EE00089819A81F7015C9347FD252F00C000C0DE
:100EF0002C9300C000C000C000C000C06C93000074
:100F0000262F3A9541F0441F000000C000C000C0E9
:100F100000C000C0E8CF38E0419100C06C9300C031
:100F2000019709F7F801B38BA28B49873B832C8388
:100F30009A83898378940E942209D8011E966D9322
:100F40007D938D939C93519729960FB6F894DEBFAD
:100F50000FBECDBFDF91CF911F910F91FF90EF900A
:100F6000DF90CF9008951F93CF93DF93EC01162F5E
:100F70008981882331F08E8187FD03C060E00E9463
:100F8000EE091E838981882341F061E0812F0E9450
:100F9000EE0960E0812F0E94270A812F90E0FC017A
:100FA000E057FF4FE491F0E0EE0FFF1FEC55FF4FCD
:100FB000259134913B8B2A8BFC01E458FF4F84919F
:100FC0008C8BDF91CF911F910895EF92FF920F9339
:100FD0001F93CF93DF931F92CDB7DEB77C018B01B8
:100FE000FC01118217821186108616861786108AD8
:100FF000118A622F49830E94C206B801C7010E946C
:1010000088064981642FC7010F90DF91CF911F910E
:101010000F91FF90EF900C94B3070F931F93CF9312
:10102000DF93DC0112968D919C91139768177907D5
:1010300008F042C017968C911797882361F0489F5B
:10104000A0011124452F289F90011124232F089FD0
:1010500080011124012F1D963C911D971A965C91D9
:101060001A9718968D919C911997FB01351307C01B
:10107000EE0FFF1FE60FF71FE80FF91F0AC0EE0F74
:10108000FF1FEE0FFF1FE80FF91FEF01C30FD11D68
:1010900018821A968C911A97EF01C80FD11D4883B8
:1010A0001B968C911B97EF01C80FD11D28831C96AE
:1010B0008C91E80FF11D0083DF91CF911F910F916B
:1010C0000895CF92DF92EF92FF920F931F93CF93E9
:1010D000DF93FC01828193816817790708F04DC086
:1010E000CA01AA27BB27182FC32ED42EE52EFF2412
:1010F000DC2DC22F0781002361F0809FC0011124E5
:10110000192FC09E60011124DD2D209FC0011124E4
:10111000C92FF5848285A085B185F81208C0CB015E
:10112000880F991F860F971F8A0F9B1F17C0CB012F
:10113000880F991F880F991F8A0F9B1F452F5527CE
:1011400066277727DC01AF0DB11D002329F0409FF2
:1011500090011124232F01C0242F2C932285DC0120
:10116000A20FB11D1C932385DC01A20FB11DDC93DE
:101170002485FC01E20FF11DC083DF91CF911F9107
:101180000F91FF90EF90DF90CF900895962F50E051
:1011900060E070E0592B682BCB01BA010895FC0187
:1011A0004481558160E070E0808591850C94F70D55
:1011B0001F920F920FB60F9211242F933F938F938C
:1011C0009F93AF93BF938091750190917601A09109
:1011D0007701B09178013091740123E0230F2D370E
:1011E00020F40196A11DB11D05C026E8230F02962B
:1011F000A11DB11D20937401809375019093760118
:10120000A0937701B09378018091790190917A0150
:10121000A0917B01B0917C010196A11DB11D80932D
:10122000790190937A01A0937B01B0937C01BF91E7
:10123000AF919F918F913F912F910F900FBE0F9083
:101240001F9018953FB7F8948091790190917A0199
:10125000A0917B01B0917C0126B5A89B05C02F3FD2
:1012600019F00196A11DB11D3FBF6627782F892F68
:101270009A2F620F711D811D911D42E0660F771F2D
:10128000881F991F4A95D1F70895CF92DF92EF9268
:10129000FF92CF93DF936B017C010E942209EB0147
:1012A000C114D104E104F10489F00E947F0C0E9472
:1012B00022096C1B7D0B683E734090F381E0C81AD5
:1012C000D108E108F108C851DC4FEACFDF91CF9196
:1012D000FF90EF90DF90CF900895789484B582606E
:1012E00084BD84B5816084BD85B5826085BD85B5CA
:1012F000816085BDEEE6F0E0808181608083E1E879
:10130000F0E01082808182608083808181608083B0
:10131000E0E8F0E0808181608083E1EBF0E08081B3
:1013200084608083E0EBF0E0808181608083EAE785
:10133000F0E080818460808380818260808380810E
:10134000816080838081806880831092C1000895CD
:101350008E3008F08E5087702091120190E4299F02
:1013600090011124822B80937C0080917A0080640C
:1013700080937A0080917A0086FDFCCF809178007E
:101380002091790090E0922B0895833081F028F429
:10139000813099F08230A1F008958730A9F088302B
:1013A000B9F08430D1F4809180008F7D03C08091AA
:1013B00080008F7780938000089584B58F7702C076
:1013C00084B58F7D84BD08958091B0008F7703C070
:1013D0008091B0008F7D8093B0000895CF93DF930C
:1013E00090E0FC01E458FF4F2491FC01E057FF4FCF
:1013F0008491882349F190E0880F991FFC01E25500
:10140000FF4FA591B4918C559F4FFC01C591D4918C
:101410009FB7611108C0F8948C91209582238C931A
:10142000888182230AC0623051F4F8948C91322F63
:10143000309583238C938881822B888304C0F89411
:101440008C91822B8C939FBFDF91CF9108950F9346
:101450001F93CF93DF931F92CDB7DEB7282F30E0D5
:10146000F901E859FF4F8491F901E458FF4F1491B5
:10147000F901E057FF4F04910023C9F0882321F0C0
:1014800069830E94C5096981E02FF0E0EE0FFF1F1C
:10149000EC55FF4FA591B4919FB7F8948C916111D1
:1014A00003C01095812301C0812B8C939FBF0F90A7
:1014B000DF91CF911F910F910895FC01818D228DB5
:1014C00090E0805C9F4F821B91098F73992708954C
:1014D000FC01918D828D981731F0828DE80FF11DFE
:1014E000858D90E008958FEF9FEF0895FC01918D19
:1014F000828D981761F0828DDF01A80FB11D5D9676
:101500008C91928D9F5F9F73928F90E008958FEFE3
:101510009FEF08958AEF9BE0892B49F080E090E0EF
:10152000892B29F00E94FA0B81110C940000089578
:10153000FC01848DDF01A80FB11DA35ABF4F2C9170
:10154000848D90E001968F739927848FA689B7893F
:101550002C93A089B1898C9180648C93938D848D18
:10156000981306C00288F389E02D80818F7D8083E7
:101570000895CF93DF93EC01888D8823C9F0EA8921
:10158000FB89808185FD05C0A889B9898C9186FD7C
:101590000FC00FB607FCF5CF808185FFF2CFA88979
:1015A000B9898C9185FFEDCFCE010E94980AE7CFD3
:1015B000DF91CF910895CF92DF92FF920F931F9307
:1015C000CF93DF931F92CDB7DEB76C0181E0D601D8
:1015D00058968C9358975B969C915B975C968C91F0
:1015E0005C97981307C05096ED91FC9151978081BC
:1015F00085FD2EC0F601038D10E00F5F1F4F0F73A6
:101600001127F02EF601848DF81211C00FB607FCD9
:10161000F9CFD6015096ED91FC915197808185FFCD
:10162000F1CFC60169830E94980A6981EBCF838D4F
:10163000E80FF11DE35AFF4F6083D6015B960C93D0
:101640005B975296ED91FC915397808180620CC01C
:10165000D6015696ED91FC91579760835096ED9187
:10166000FC91519780818064808381E090E00F90AD
:10167000DF91CF911F910F91FF90DF90CF90089550
:10168000BF92CF92DF92EF92FF92CF93DF93EC0164
:101690006A017B01B22EE889F98982E080834115D5
:1016A00081EE580761057105A1F060E079E08DE3F6
:1016B00090E0A70196010E94A80C21503109410930
:1016C00051095695479537952795211580E138079B
:1016D00098F0E889F989108260E874E88EE190E07A
:1016E000A70196010E94A80C215031094109510916
:1016F0005695479537952795EC85FD853083EE8582
:10170000FF852083188EEC89FD89B082EA89FB89E8
:10171000808180618083EA89FB8980818860808301
:10172000EA89FB89808180688083EA89FB898081DE
:101730008F7D8083DF91CF91FF90EF90DF90CF90EE
:10174000BF9008951F920F920FB60F9211242F93FE
:101750008F939F93EF93FF93E0918D01F0918E0112
:101760008081E0919301F091940182FD12C09081FB
:10177000809196018F5F8F7320919701821751F0AE
:10178000E0919601F0E0E358FE4F958F809396012B
:1017900001C08081FF91EF919F918F912F910F90C8
:1017A0000FBE0F901F9018951F920F920FB60F92B9
:1017B00011242F933F934F935F936F937F938F9356
:1017C0009F93AF93BF93EF93FF938DE791E00E94B8
:1017D000980AFF91EF91BF91AF919F918F917F9167
:1017E0006F915F914F913F912F910F900FBE0F908E
:1017F0001F9018958DE791E00E945D0A21E0892BEA
:1018000009F420E0822F08951092800110927F0148
:1018100088EE93E0A0E0B0E0809381019093820194
:10182000A0938301B093840187E191E090937E01BE
:1018300080937D0185EC90E090938A0180938901EB
:1018400084EC90E090938C0180938B0180EC90E08D
:1018500090938E0180938D0181EC90E090939001A4
:1018600080938F0182EC90E090939201809391019C
:1018700086EC90E0909394018093930110929601EE
:10188000109297011092980110929901089508956D
:101890000E946D090E94470C0E948900CAE8DAE0A4
:1018A0000E94C1052097E1F30E948A0AF9CFCF92E6
:1018B000DF92EF92FF920F931F93CF93DF936C0110
:1018C0007A01EB01E60EF71E00E010E0CE15DF0511
:1018D00061F06991D601ED91FC910190F081E02DCC
:1018E000C6010995080F191FF1CFC801DF91CF91EB
:1018F0001F910F91FF90EF90DF90CF900895089582
:10190000AA1BBB1B51E107C0AA1FBB1FA617B70725
:1019100010F0A61BB70B881F991F5A95A9F7809541
:101920009095BC01CD01089597FB072E16F4009405
:1019300007D077FD09D00E94800C07FC05D03EF44B
:10194000909581959F4F0895709561957F4F08956B
:10195000A1E21A2EAA1BBB1BFD010DC0AA1FBB1FB3
:10196000EE1FFF1FA217B307E407F50720F0A21B25
:10197000B30BE40BF50B661F771F881F991F1A9492
:1019800069F760957095809590959B01AC01BD01BC
:10199000CF010895EE0FFF1F0590F491E02D0994FB
:1019A000CF93DF938230910510F482E090E0E091D4
:1019B0001C02F0911D0220E030E0A0E0B0E0309782
:1019C00039F14081518148175907B8F04817590734
:1019D00071F482819381109729F013969C938E93D2
:1019E00012972CC090931D0280931C0227C02115D2
:1019F000310531F04217530718F0A901DB0101C08E
:101A0000EF019A01BD01DF010280F381E02DD7CF04
:101A100021153105F9F0281B390B2430310580F4EC
:101A20008A819B816115710521F0FB01938382837B
:101A300004C090931D0280931C02FE01329644C0A4
:101A4000FE01E20FF31F81939193225031093983F4
:101A500028833AC020911A0230911B02232B41F4B3
:101A6000209102013091030130931B0220931A024E
:101A700020910001309101012115310541F42DB76C
:101A80003EB74091040150910501241B350BE091B4
:101A90001A02F0911B02E217F307A0F42E1B3F0B72
:101AA0002817390778F0AC014E5F5F4F24173507D0
:101AB00048F04E0F5F1F50931B0240931A02819310
:101AC000919302C0E0E0F0E0CF01DF91CF91089563
:101AD000CF93DF93009709F487C0FC0132971382FC
:101AE0001282C0911C02D0911D02209781F42081A6
:101AF0003181280F391F80911A0290911B028217A1
:101B0000930779F5F0931B02E0931A026DC0DE0192
:101B100020E030E0AE17BF0750F412964D915C9173
:101B200013979D014115510509F1DA01F3CFB383F4
:101B3000A28340815181840F951F8A179B0771F4FE
:101B40008D919C911197840F951F029691838083AC
:101B500012968D919C911397938382832115310561
:101B600029F4F0931D02E0931C023EC0D9011396A4
:101B7000FC93EE9312974D915D91A40FB51FEA1758
:101B8000FB0779F480819181840F951F0296D9011A
:101B900011969C938E938281938113969C938E933E
:101BA0001297E0E0F0E08A819B81009719F0FE0136
:101BB000EC01F9CFCE01029628813981820F931F63
:101BC00020911A0230911B022817390769F43097C7
:101BD00029F410921D0210921C0202C0138212827C
:101BE000D0931B02C0931A02DF91CF910895DC01BC
:101BF00001C06D9341505040E0F7089510E0CCEBE8
:101C0000D0E004C0FE010E94CC0C2296CE3BD1074E
:061C1000C9F7F894FFCFB4
:101C160000001E02800002000C00080005000400FF
:101C260003000100000000DB0A570C5D0A760A6813
:041C36000AB90A00DD
:00000001FF
